:020000042000DA
:10000000174100601301010097120000938282994A
:1000100017030060130303FF97030060938383FEBD
:100020006379730003AE02002320C3019102110320
:10003000C5BF970200609382E2FC170300601303C0
:1000400063FC63F6620023A002009102DDBF8923F6
:1000500001A0411106C622C40008B7370110A1074C
:1000600023A00700B7370110B10723A00700B73757
:100070000110E1071307B00898C3B7370110A107B3
:10008000054798C3B7370110B107054798C301006A
:10009000B240224441018280011106CE22CC0010E0
:1000A000AA87A307F4FE0100B73701109C43E3CDF4
:1000B00007FEB73701100347F4FE98C30100F24072
:1000C000624405618280011106CE22CC00102326F5
:1000D000A4FE19A88327C4FE138717002326E4FE75
:1000E00083C707003E854D3F8327C4FE83C70700B3
:1000F000F5F301000100F2406244056182807971EC
:1001000006D622D40018232EA4FCB707002093871C
:10011000C7682324F4FEF1472326F4FE25A0832795
:10012000C4FE0327C4FDB357F700BD8B032784FE2D
:10013000BA9783C707003E8585378327C4FEF1172A
:100140002326F4FE8327C4FEE3DB07FC0100010045
:10015000B250225445618280797106D622D40018AB
:10016000232EA4FC232604FE31A08327C4FE85078A
:100170002326F4FE0327C4FD8567938707C833074A
:10018000F7028327C4FEE3E2E7FE01000100B2505C
:10019000225445618280411106C622C40008B72757
:1001A0000110A1079843B7270110A10713678742E1
:1001B00098C3B7270110C1079843B7270110C1079B
:1001C0001367070198C3B7270110B1079843B727F2
:1001D0000110B1071367074098C3B74701107D4767
:1001E00098C3B7470110910723A00700B747011034
:1001F000D107054798C3B7470110E10723A00700BF
:10020000B7470110938787024167050798C3B7472F
:1002100001109387C702054798C3B747011093871A
:1002200007043707080098C3B747011093870706EC
:1002300023A007000100B24022444101828079716D
:1002400006D622D40018AA87A30FF4FC0100B747F2
:100250000110938787049C43E3CB07FEB747011047
:10026000938787040347F4FD98C3B747011093872A
:10027000C7049C432326F4FE8327C4FEE3C707FE7E
:100280008327C4FE93F7F70F3E85B2502254456191
:100290008280411106C622C40008B7270110B107A9
:1002A0009843B7270110B1071377F7BF98C3010030
:1002B000B240224441018280411106C622C4000896
:1002C000B7270110B1079843B7270110B10713678B
:1002D000074098C30100B2402244410182807971F5
:1002E00006D622D40018AA87232CB4FCA30FF4FC52
:1002F000FD57A307F4FE8347F4FD93E7070493F744
:10030000F70F3E852D3F832784FDE18393F7F70F99
:100310003E853537832784FDC18393F7F70F3E85EC
:10032000393F832784FDA18393F7F70F3E85013F73
:10033000832784FD93F7F70F3E8511378347F4FD3C
:1003400091E7930750F9A307F4FE11A80347F4FDC2
:10035000A1476316F700930770F8A307F4FE8347DD
:10036000F4FE3E85E93DA9472324F4FE1305F00F72
:10037000F935AA87A303F4FE830774FE63DA070046
:10038000832784FEFD172324F4FE832784FEF9FFD0
:10039000834774FE3E85B25022544561828001112C
:1003A00006CE22CC0010B70700201385076A213B38
:1003B0002137232604FE09A81305F00F49358327AA
:1003C000C4FE85072326F4FE0327C4FEA547E3D514
:1003D000E7FEC135814501451937AA87A305F4FE1B
:1003E000E13D1305F00FA13DB70700201385C76B52
:1003F000D9398347B4FE3E851933B70700201385EA
:10040000076DD1310347B4FE85476309F700B7078D
:1004100000201385476D4539FD57B5A2B707002069
:100420001385876F4D31B5359305A01A2145453D9C
:10043000AA87A305F4FE0347B4FE85476310F708B7
:100440001305F00FED3BAA872300F4FE1305F00F10
:10045000FD33AA87A300F4FE1305F00FCD33AA875E
:100460002301F4FE1305F00FD93BAA87A301F4FE84
:10047000A1351305F00FE133B7070020138507718D
:1004800099318347B4FE3E859D39B7070020138517
:1004900047721539834724FE13F7F7008547631821
:1004A000F700034734FE9307A00A630BF702B70770
:1004B0000020138507740139FD57F1A0F53B1305A2
:1004C000F00FB53BB707002013850771ED3E83475A
:1004D000B4FE3E852D31B707002013850776E5363B
:1004E000930740062322F4FE6D3381451305700304
:1004F000FD33AA87A305F4FEC1331305F00F813342
:100500000347B4FE85476309F700B707002013854A
:100510008777553EFD5785A8AD3B0347B4FE854719
:10052000631BF700B7050040130590024D3BAA87F7
:10053000A305F4FE01A88145130590024D33AA8757
:10054000A305F4FE953B1305F00FD5392945293154
:100550008347B4FE89CB832744FEFD172322F4FE94
:10056000832744FED1F38347B4FE81CBB707002035
:1005700013858778893EFD5739A0B707002013857A
:10058000C77A913681473E85F24062440561828098
:10059000011106CE22CC00106D3C130540066D3EC5
:1005A000B70700201385077D393EB7170020138554
:1005B0000780113EB71700201385C7812936B7176A
:1005C0000020138507840136B7170020138507879D
:1005D000DD3CD136B717002013858788ED34C13351
:1005E000AA8781EFB71700201385878AE93CB717E0
:1005F00000201385478CC13C15A8B7170020138530
:10060000478ED134B7170020138547906D3CB7173C
:10061000002013850791453CB7170020138587926A
:100620005D34B71700201385C794713CB7170020BD
:100630001385C796493C232604FE1305803E293EB8
:100640008327C4FE85072326F4FE8326C4FEB7D77E
:10065000CCCC9387D7CCB3B7F60213D73700BA8781
:100660008A07BA9786073387F64061FBB7170020E1
:1006700013858798893C8327C4FE3E854934B71784
:1006800000201385479981344DBF0000303132334B
:10069000343536373839414243444546000000007E
:1006A0005344204361726420496E6974205374611D
:1006B0007274696E672E2E2E0D0A0000434D443071
:1006C00020526573706F6E73653A203078000000B9
:1006D0000D0A000053442043617264206E6F742041
:1006E000726573706F6E64696E6720746F20434D1E
:1006F00044300D0A0000000053442043617264201E
:10070000696E2069646C652073746174650D0A00FC
:10071000434D443820526573706F6E73653A2030D4
:10072000780000002028534476322B2063617264E5
:10073000206465746563746564290D0A0000000017
:10074000566F6C746167652072616E6765206E6FAD
:100750007420737570706F727465640D0A00000008
:10076000202853447631206F72204D4D4320636121
:100770007264290D0A000000434D4435352066613E
:10078000696C65640D0A000041434D4434312066B4
:1007900061696C6564202D2063617264206E6F74E2
:1007A0002072656164790D0A000000005344204303
:1007B00061726420696E697469616C697A6564202C
:1007C0007375636365737366756C6C79210D0A00CC
:1007D0000D0A3D3D3D3D3D3D3D3D3D3D3D3D3D3DAC
:1007E0003D3D3D3D3D3D3D3D3D3D3D3D3D3D3D3D39
:1007F0003D3D3D3D3D3D3D3D3D3D0D0A0000000080
:10080000202048694669766531205344204361724F
:100810006420546573740D0A0000000020204172AA
:100820006475696E6F204C434420536869656C643D
:10083000202B206D6963726F53440D0A0000000085
:100840003D3D3D3D3D3D3D3D3D3D3D3D3D3D3D3DD8
:100850003D3D3D3D3D3D3D3D3D3D3D3D3D3D3D3DC8
:100860003D3D3D3D3D3D3D3D0D0A0D0A0000000072
:10087000496E697469616C697A696E672053504981
:100880002E2E2E0D0A00000053504920696E697407
:1008900069616C697A6564206174203530306B4819
:1008A0007A0D0A0D0A0000000D0A2A2A2A20534454
:1008B000204361726420526561647921202A2A2ACA
:1008C0000D0A0000596F752063616E206E6F7720EE
:1008D000726561642F777269746520626C6F636BF7
:1008E000730D0A000D0A2A2A2A20534420436172FC
:1008F0006420496E6974204661696C6564202A2A07
:100900002A0D0A00436865636B3A0D0A0000000077
:1009100020202D204361726420697320696E736505
:10092000727465640D0A000020202D2043617264FA
:10093000206973206E6F742077726974652D7072F0
:100940006F7465637465640D0A00000020202D201B
:10095000536869656C642069732070726F7065728A
:100960006C79207365617465640D0A000D0A456E2B
:10097000746572696E67206D61696E206C6F6F704F
:100980002E2E2E0D0A0000004865617274626561AA
:10099000743A2000207365636F6E64730D0A000063
:0400000520000000D7
:00000001FF
